{
    "contractName": "IndexContract",
    "abi": [
        {
            "inputs": [],
            "stateMutability": "nonpayable",
            "type": "constructor"
        },
        {
            "inputs": [],
            "name": "ipfsCID",
            "outputs": [
                {
                    "internalType": "string",
                    "name": "",
                    "type": "string"
                }
            ],
            "stateMutability": "view",
            "type": "function"
        }
    ],
    "bytecode": "608060405234801561001057600080fd5b506040518060600160405280602e8152602001610344602e913960009061003790826100dc565b5061019b565b634e487b7160e01b600052604160045260246000fd5b600181811c9082168061006757607f821691505b60208210810361008757634e487b7160e01b600052602260045260246000fd5b50919050565b601f8211156100d757600081815260208120601f850160051c810160208610156100b45750805b601f850160051c820191505b818110156100d3578281556001016100c0565b5050505b505050565b81516001600160401b038111156100f5576100f561003d565b610109816101038454610053565b8461008d565b602080601f83116001811461013e57600084156101265750858301515b600019600386901b1c1916600185901b1785556100d3565b600085815260208120601f198616915b8281101561016d5788860151825594840194600190910190840161014e565b508582101561018b5787850151600019600388901b60f8161c191681555b5050505050600190811b01905550565b61019a806101aa6000396000f3fe608060405234801561001057600080fd5b506004361061002b5760003560e01c806349fc73dd14610030575b600080fd5b61003861004e565b60405161004591906100dc565b60405180910390f35b6000805461005b9061012a565b80601f01602080910402602001604051908101604052809291908181526020018280546100879061012a565b80156100d45780601f106100a9576101008083540402835291602001916100d4565b820191906000526020600020905b8154815290600101906020018083116100b757829003601f168201915b505050505081565b600060208083528351808285015260005b81811015610109578581018301518582016040015282016100ed565b506000604082860101526040601f19601f8301168501019250505092915050565b600181811c9082168061013e57607f821691505b60208210810361015e57634e487b7160e01b600052602260045260246000fd5b5091905056fea26469706673582212203461a9264debcd5ac1871dcd24211a63e7e77e934d9ad29ab15f9f201559a63c64736f6c63430008130033516d553761754a436b71774565743654745478443937786e3571344a745a4d6a704a6b787445785331476a79554b",
    "sourcePath": "/Users/aryss/Desktop/ethlisbon-2023/contracts/indexContract.sol",
    "compiler": {
        "name": "solc",
        "version": "0.8.19+commit.7dd6d404"
    },
    "functionHashes": {
        "ipfsCID()": "49fc73dd"
    },
    "gasEstimates": {
        "creation": {
            "codeDepositCost": "82000",
            "executionCost": "infinite",
            "totalCost": "infinite"
        },
        "external": {
            "ipfsCID()": "infinite"
        }
    }
}